:020000040800F2
:1000000000280020791C0008C91C0008C91C000831
:10001000C91C0008C91C0008C91C00080000000019
:10002000000000000000000000000000C91C0008E3
:10003000C91C000800000000C91C0008C91C0008F9
:10004000C91C0008C91C0008C91C0008C91C0008FC
:10005000C91C0008C91C0008C91C0008C91C0008EC
:10006000C91C0008C91C0008C91C0008C91C0008DC
:10007000C91C0008C91C0008C91C0008C91C0008CC
:10008000C91C0008C91C0008C91C0008C91C0008BC
:10009000C91C0008C91C0008C91C0008C91C0008AC
:1000A000C91C0008C91C0008C91C0008C91C00089C
:1000B000C91C0008C91C0008C91C0008C91C00088C
:1000C000C91C0008C91C0008C91C0008C91C00087C
:1000D000C91C0008B9240008CD240008E124000848
:1000E000C91C0008C91C000800000000C91C000849
:1000F000C91C0008C91C0008C91C0008C91C00084C
:10010000C91C0008C91C0008C91C0008C91C00083B
:10011000C91C0008C91C0008C91C0008C91C00082B
:10012000C91C0008C91C0008C91C0008C91C00081B
:1001300010B5054C237833B9044B13B10448AFF321
:1001400000800123237010BD040000200000000087
:100150003C25000808B5034B1BB103490348AFF326
:10016000008008BD00000000080000203C250008B9
:1001700010F8012B11F8013B012A28BF9A42F7D051
:10018000D01A704780B582B000AF0123BB80042332
:10019000BB710223FB713B1D19462C4801F04EFE3A
:1001A0000223BB800423BB710223FB713B1D194654
:1001B000264801F043FE0823BB800423BB710223C1
:1001C000FB713B1D1946214801F038FE1023BB800E
:1001D0000423BB710223FB713B1D19461B4801F030
:1001E0002DFE8023BB800323BB713B1D194617489E
:1001F00001F024FE4023BB800323BB713B1D194645
:10020000124801F01BFE2023BB800323BB713B1D62
:1002100019460E4801F012FE002201210B4801F0A0
:10022000A3FE00220221094801F09EFE00220821BF
:10023000064801F099FE00221021044801F094FEC6
:10024000002318460837BD4680BD00BF000C0140A2
:1002500080B584B000AF78607B68FF221A700123FC
:100260003B737B68002B58D00023FB7351E0FB7B72
:100270002E4AD35C012219462D4801F075FE002359
:10028000BB7335E0BB7B2B4AD35C1946284801F091
:1002900054FE03467B737B7B012B26D1142000F098
:1002A0005DF9BB7B234AD35C1946214801F045FE2A
:1002B00003467B7308E0BB7B1E4AD35C19461C488F
:1002C00001F03BFE03467B737B7B012BF3D0FA7B73
:1002D000B97B194813465B00134403440B441A7856
:1002E0007B681A7000233B7305E0BB7B0133BB7353
:1002F000BB7B022BC6D9FB7B0C4AD35C0022194680
:100300000B4801F031FE3B7B002B08D0FB7B013317
:10031000FB73FB7B032BAAD902E0012301E000BFA2
:10032000002318461037BD4680BD00BFA426000834
:10033000000C0140A82600089826000880B582B06D
:1003400000AF0346FB71FB79002B02D0012B13D0C9
:1003500023E001224FF48061124801F005FE0120E4
:1003600000F0FCF800224FF480610E4801F0FCFD23
:10037000022000F0F3F810E0012240210A4801F0C9
:10038000F3FD012000F0EAF800224021064801F0C8
:10039000EBFD022000F0E2F800BF0023184608370A
:1003A000BD4680BD000C01400008014080B584B00E
:1003B00000AF0346FB71FB79002B02D0012B63D009
:1003C000C3E04FF40063BB810423BB730123FB73C1
:1003D00007F10C0319465F4801F030FD4FF48063CC
:1003E000BB810423BB730123FB7307F10C03194684
:1003F000584801F023FD4FF48053BB810423BB73A5
:100400000123FB7307F10C031946524801F016FD56
:100410004FF40053BB810423BB730123FB7307F12B
:100420000C0319464B4801F009FD4FF48043BB8192
:100430000423BB730123FB7307F10C0319464548E2
:1004400001F0FCFC4FF40043BB810423BB73012388
:10045000FB7307F10C0319463E4801F0EFFC022143
:10046000002000F0B5F82821002000F0B1F80E219E
:10047000002000F0ADF80621002000F0A9F80121CD
:10048000002000F0A5F860E02023BB810423BB73AB
:100490000123FB7307F10C0319462F4801F0CEFC32
:1004A0004023BB810423BB730123FB7307F10C03BF
:1004B0001946294801F0C2FC4FF48053BB81042344
:1004C000BB730123FB7307F10C031946224801F0AB
:1004D000B5FC4FF40053BB810423BB730123FB73B2
:1004E00007F10C0319461C4801F0A8FC4FF48043A7
:1004F000BB810423BB730123FB7307F10C03194673
:10050000154801F09BFC4FF40043BB810423BB73EF
:100510000123FB7307F10C0319460F4801F08EFC11
:100520000221012000F054F82821012000F050F8A9
:100530000E21012000F04CF80621012000F048F8BF
:100540000121012000F044F800BF002318461037B5
:10055000BD4680BD000C01400008014080B485B05C
:1005600000AF78600023FB600BE00023BB6002E07B
:10057000BB680133BB60BB68FE2BF9D9FB68013354
:10058000FB60FA687B689A42EFD300BF00BF143764
:10059000BD4680BC704780B582B000AF0346FB719A
:1005A000FB79002B02D0012B05D009E001210020AE
:1005B00000F00EF804E00121012000F009F800BF6E
:1005C0000220FFF7CBFF002318460837BD4680BD49
:1005D00080B582B000AF03460A46FB711346BB717B
:1005E000FB79002B03D0012B00F0AC8054E10022FA
:1005F0004FF40061AB4801F0B7FCBB79DB09DBB21B
:1006000003F00103002B06D001224FF40041A5485E
:1006100001F0AAFC05E000224FF40041A14801F0DE
:10062000A3FCBB799B09DBB203F00103002B06D0CE
:1006300001224FF480419B4801F096FC05E0002226
:100640004FF48041974801F08FFCBB795B09DBB226
:1006500003F00103002B06D001224FF40051914812
:1006600001F082FC05E000224FF400518D4801F0BA
:100670007BFCBB791B09DBB203F00103002B06D026
:1006800001224FF48051874801F06EFC05E0002202
:100690004FF48051834801F067FC0020FFF74EFEC5
:1006A000BB79DB08DBB203F00103002B06D001228B
:1006B0004FF400417B4801F057FC05E000224FF465
:1006C0000041784801F050FCBB799B08DBB203F095
:1006D0000103002B06D001224FF48041714801F044
:1006E00043FC05E000224FF480416E4801F03CFCE1
:1006F000BB795B08DBB203F00103002B06D00122BB
:100700004FF40051674801F02FFC05E000224FF440
:100710000051644801F028FCBB7903F00103002B71
:1007200006D001224FF480515E4801F01DFC05E027
:1007300000224FF480515B4801F016FC0020FFF7C7
:10074000FDFDA9E000222021574801F00DFCBB79F6
:10075000DB09DBB203F00103002B06D001224FF4CA
:100760000041514801F000FC05E000224FF4004137
:100770004D4801F0F9FBBB799B09DBB203F00103A3
:10078000002B06D001224FF48041474801F0ECFBDA
:1007900005E000224FF48041434801F0E5FBBB79BE
:1007A0005B09DBB203F00103002B06D001224FF4FA
:1007B00000513D4801F0D8FB05E000224FF4005104
:1007C000394801F0D1FBBB791B09DBB203F001030F
:1007D000002B06D001224FF48051334801F0C4FBB6
:1007E00005E000224FF480512F4801F0BDFB0120AD
:1007F000FFF7A4FDBB79DB08DBB203F00103002B9C
:1008000006D001224FF40041274801F0ADFB05E07E
:1008100000224FF40041244801F0A6FBBB799B085D
:10082000DBB203F00103002B06D001224FF480411C
:100830001D4801F099FB05E000224FF480411A4861
:1008400001F092FBBB795B08DBB203F00103002BE4
:1008500006D001224FF40051134801F085FB05E05A
:1008600000224FF40051104801F07EFBBB7903F0E9
:100870000103002B06D001224FF480510A4801F0F9
:1008800073FB05E000224FF48051074801F06CFB38
:100890000120FFF753FD00BF002318460837BD466F
:1008A00080BD00BF000C01400008014080B582B04F
:1008B00000AF03460A46FB711346BB71FB79002B60
:1008C00003D0012B00F0AC8054E101224FF4006111
:1008D000AB4801F049FBBB79DB09DBB203F0010354
:1008E000002B06D001224FF40041A54801F03CFB4B
:1008F00005E000224FF40041A14801F035FBBB792F
:100900009B09DBB203F00103002B06D001224FF458
:1009100080419B4801F028FB05E000224FF4804114
:10092000974801F021FBBB795B09DBB203F00103BF
:10093000002B06D001224FF40051914801F014FB26
:1009400005E000224FF400518D4801F00DFBBB790A
:100950001B09DBB203F00103002B06D001224FF488
:100960008051874801F000FB05E000224FF48051E0
:10097000834801F0F9FA0020FFF7E0FCBB79DB08BF
:10098000DBB203F00103002B06D001224FF400413B
:100990007B4801F0E9FA05E000224FF40041784875
:1009A00001F0E2FABB799B08DBB203F00103002BF4
:1009B00006D001224FF48041714801F0D5FA05E0DC
:1009C00000224FF480416E4801F0CEFABB795B08FB
:1009D000DBB203F00103002B06D001224FF40051DB
:1009E000674801F0C1FA05E000224FF40051644865
:1009F00001F0BAFABB7903F00103002B06D0012203
:100A00004FF480515E4801F0AFFA05E000224FF448
:100A100080515B4801F0A8FA0020FFF78FFCA9E0A5
:100A200001222021574801F09FFABB79DB09DBB294
:100A300003F00103002B06D001224FF4004151487E
:100A400001F092FA05E000224FF400414D4801F018
:100A50008BFABB799B09DBB203F00103002B06D0B4
:100A600001224FF48041474801F07EFA05E0002260
:100A70004FF48041434801F077FABB795B09DBB260
:100A800003F00103002B06D001224FF400513D4832
:100A900001F06AFA05E000224FF40051394801F0F4
:100AA00063FABB791B09DBB203F00103002B06D00C
:100AB00001224FF48051334801F056FA05E000223C
:100AC0004FF480512F4801F04FFA0120FFF736FC18
:100AD000BB79DB08DBB203F00103002B06D0012257
:100AE0004FF40041274801F03FFA05E000224FF49F
:100AF0000041244801F038FABB799B08DBB203F0CF
:100B00000103002B06D001224FF480411D4801F063
:100B10002BFA05E000224FF480411A4801F024FA34
:100B2000BB795B08DBB203F00103002B06D0012286
:100B30004FF40051134801F017FA05E000224FF47A
:100B40000051104801F010FABB7903F00103002BAB
:100B500006D001224FF480510A4801F005FA05E061
:100B600000224FF48051074801F0FEF90120FFF701
:100B7000E5FB00BF002318460837BD4680BD00BF17
:100B8000000C01400008014080B584B000AF03466E
:100B90003960FB71FB79002B02D0012B1BD034E0B4
:100BA00001224FF400611B4801F0DEF90023FB73C2
:100BB0000AE0FB7B3A6813441B7819460020FFF7D4
:100BC00075FEFB7B0133FB73FB7B3A6813441B7898
:100BD000002BEED119E0012220210F4801F0C4F9C9
:100BE0000023BB730AE0BB7B3A6813441B781946A9
:100BF0000120FFF75BFEBB7B0133BB73BB7B3A6815
:100C000013441B78002BEED100BF00231846103789
:100C1000BD4680BD000C01400008014080B58AB08F
:100C200000AF03460A46FB711346BB80FB79002BDD
:100C300002D0012B50D09EE001224FF400615048B9
:100C400001F092F9002387F82730002387F8263037
:100C5000BB88002B23D130210020FFF727FE8AE03C
:100C6000BA88484BA3FB0213D9080B469B000B44E0
:100C70005B00D31A9BB2DAB297F827303032D2B287
:100C800028333B4403F8102CBB883E4AA2FB0323C5
:100C9000DB08BB8097F82730013387F82730BB8803
:100CA000002BDDD197F8273087F826300FE097F832
:100CB0002630013B28333B4413F8103C19460020F2
:100CC000FFF7F4FD97F82630013B87F8263097F8B8
:100CD0002630002BEBD14EE0012220212A4801F0E2
:100CE00043F9002387F82530002387F82430BB8898
:100CF000002B23D130210120FFF7D8FD3AE0BA883C
:100D0000204BA3FB0213D9080B469B000B445B004E
:100D1000D31A9BB2DAB297F825303032D2B22833E8
:100D20003B4403F81C2CBB88164AA2FB0323DB08B8
:100D3000BB8097F82530013387F82530BB88002B1E
:100D4000DDD197F8253087F824300FE097F824306C
:100D5000013B28333B4413F81C3C19460120FFF7A4
:100D6000A5FD97F82430013B87F8243097F824300C
:100D7000002BEBD100BF002318462837BD4680BDAD
:100D8000000C0140CDCCCCCC0008014080B582B035
:100D900000AF0346FB710B46BB7113467B71FB79B9
:100DA000002B02D0012B3AD076E0BB79002B0AD180
:100DB0007B790F2B6DD87B79803BDBB21946002005
:100DC000FFF706FC65E0BB79012B0AD17B790F2B7D
:100DD0005FD87B79403BDBB219460020FFF7F8FB78
:100DE00057E0BB79022B0AD17B790F2B51D87B7945
:100DF000703BDBB219460020FFF7EAFB49E0BB7904
:100E0000032B0AD17B790F2B43D87B79303BDBB2A4
:100E100019460020FFF7DCFB3BE001233DE0BB79F6
:100E2000002B0AD17B790F2B35D87B79803BDBB245
:100E300019460120FFF7CCFB2DE0BB79012B0AD12D
:100E40007B790F2B27D87B79403BDBB219460120F9
:100E5000FFF7BEFB1FE0BB79022B0AD17B790F2B7A
:100E600019D87B79703BDBB219460120FFF7B0FB44
:100E700011E0BB79032B0AD17B790F2B0BD87B793F
:100E8000303BDBB219460120FFF7A2FB03E0012350
:100E900003E000BF00E000BF002318460837BD464E
:100EA00080BD000080B582B000AF0123BB80042369
:100EB000BB710123FB713B1D19460F4800F0BEFFBB
:100EC0004FF40063BB800423BB710123FB713B1D06
:100ED0001946094800F0B2FF01220121064801F03D
:100EE00043F801224FF40061034801F03DF800BFD0
:100EF0000837BD4680BD00BF0008014080B582B004
:100F000000AF78607B68012B04D07B68B3F5006F7D
:100F100006D00CE000220121074801F025F806E088
:100F200000224FF40061044801F01EF800BF00BF2A
:100F30000837BD4680BD00BF0008014080B582B0C3
:100F400000AF78607B68012B04D07B68B3F5006F3D
:100F500006D00CE001220121074801F005F806E067
:100F600001224FF40061044800F0FEFF00BF00BF03
:100F70000837BD4680BD00BF0008014080B582B083
:100F800000AF8023BB800323BB713B1D194608487B
:100F900000F054FF0223BB800323BB713B1D1946A5
:100FA000034800F04BFF00BF0837BD4680BD00BFBF
:100FB0000008014080B582B000AF03463960FB8075
:100FC000FB88022B10D0802B1DD18021104800F00F
:100FD000B4FF0346012B03D13B6801221A7012E0D3
:100FE0003B6800221A700EE00221094800F0A5FFBC
:100FF0000346012B03D13B6801221A7002E03B68D3
:1010000000221A7000BF00BF0837BD4680BD00BF78
:101010000008014080B584B000AF0346FB71FB7946
:10102000002B02D0012B0ED01BE04FF48073BB814C
:101030000423BB730123FB7307F10C0319460B4810
:1010400000F0FCFE0DE04FF40073BB810423BB7382
:101050000123FB7307F10C031946044800F0EEFE70
:1010600000BF00BF1037BD4680BD00BF000C01406F
:1010700080B582B000AF03460A46FB711346BB71D0
:10108000FB79002B02D0012B25D049E0BB79012B45
:1010900010D101224FF48071234800F065FF4FF416
:1010A000FA6000F0FDFF00224FF480711E4800F04E
:1010B0005BFF35E001224FF480711B4800F054FFC4
:1010C00040F2CF5000F0ECFF00224FF48071164840
:1010D00000F04AFF24E0BB79012B10D101224FF42C
:1010E0000071114800F040FF4FF4FA6000F0D8FFA3
:1010F00000224FF400710C4800F036FF0FE001228F
:101100004FF40071084800F02FFF40F2CF5000F07C
:10111000C7FF00224FF40071034800F025FF00BF15
:1011200000BF0837BD4680BD000C014080B485B0CB
:1011300000AF78600B46FB700023FB7307E0FB7B7E
:101140007A68134400221A70FB7B0133FB73FA7B2D
:10115000FB789A42F3D300BF00BF1437BD4680BC72
:101160007047000080B584B000AF78600B46FB701C
:101170000023FB731CE0FB7B002219460020FFF7D5
:1011800005FEFB7B9BB219460020FFF747FD0D498A
:101190000020FFF7F9FCFA7B13469B0013447A68A2
:1011A000134419460020FFF7EFFCFB7B0133FB7370
:1011B000FA7BFB789A42DED300BF00BF1037BD46F2
:1011C00080BD00BF5425000880B485B000AF7860B2
:1011D00039600023FB730023BB7300237B731CE087
:1011E0000023FB7313E0FB7B7A6813441978BA7B06
:1011F00013469B0013443A681A44FB7BD35C994224
:1012000002D17B7B01337B73FB7B0133FB73FB7B65
:10121000032BE8D9BB7B0133BB73BB7B032BDFD92B
:101220007B7B03F00303DBB2002B04D17B7B002B21
:1012300001D0012300E0002318461437BD4680BCCE
:101240007047000080B500AF4FF40060FFF776FEF6
:101250000120FFF773FE614B1B78DBB2002B0CD132
:1012600000225F495F4801F089F85C4B1B78DBB2D4
:101270000133DAB2594B1A709FE0584B1B78DBB23E
:10128000012B0CD100225849564801F077F8534BF6
:101290001B78DBB20133DAB2504B1A708DE04F4B42
:1012A0001B78DBB2022B0CD1002250494D4801F0D3
:1012B00065F84A4B1B78DBB20133DAB2474B1A7040
:1012C0007BE0464B1B78DBB2032B0CD10022484954
:1012D000444801F053F8414B1B78DBB20133DAB2DA
:1012E0003E4B1A7069E03D4B1B78DBB2042B61D199
:1012F0003B4B00221A7100223E493A4801F03EF869
:10130000364B00221A703C4B01221A7001223B49D5
:10131000344801F00AF801223149324801F005F859
:1013200037492F48FFF750FF0346002B33D0354B8A
:101330001B78DBB2002B06D0324B1B78DBB2013BB3
:10134000DAB2304B1A700120FFF725F92E4901203F
:10135000FFF71AFC4FF40060FFF7D0FD01210020D9
:10136000FFF786FE29498020FFF724FE06E0274983
:101370008020FFF71FFE032000F0A7FE234B1B7801
:10138000002BF4D100210020FFF772FE4FF4006023
:10139000FFF7D4FD09E00120FFF7FDF81C4901200B
:1013A000FFF7F2FB0120FFF7A9FD05210C48FFF72D
:1013B000BDFE02E0094BFF221A70164B00221A7084
:1013C000154B00221A70154B00221A700120FFF7EE
:1013D000E2F8134B01221A7000BF80BD3B000020D1
:1013E0004000002000380140410000204200002061
:1013F0004300002038000020390000205825000854
:1014000024000020000000206425000821000020A6
:10141000702500084F0000205000002051000020DF
:101420004E00002080B500AF5B4B1B78DBB2002B79
:101430000CD1002259495A4800F0A0FF564B1B78A6
:10144000DBB20133DAB2544B1A7094E0524B1B7882
:10145000DBB2012B0CD100225249514800F08EFF23
:101460004D4B1B78DBB20133DAB24B4B1A7082E082
:10147000494B1B78DBB2022B0CD100224A49484869
:1014800000F07CFF444B1B78DBB20133DAB2424BF5
:101490001A7070E0404B1B78DBB2032B0CD100229A
:1014A00042493F4800F06AFF3B4B1B78DBB20133F7
:1014B000DAB2394B1A705EE0374B1B78DBB2042B83
:1014C00056D1364B00221A7100223949344800F0B7
:1014D00055FF314B00221A70364B01221A7001223F
:1014E00035492F4800F021FF01222C492C4800F0FB
:1014F0001CFF32492948FFF767FE0346002B2BD01B
:101500002F4B1B78DBB2022B06D82D4B1B78DBB29E
:101510000133DAB22A4B1A700120FFF73CF829494F
:101520000120FFF731FB01210120FFF7A1FD264932
:101530000220FFF73FFD06E023490220FFF73AFDB6
:10154000032000F0C2FD204B1B78002BF4D10021BA
:101550000120FFF78DFD06E00120FFF71CF81B4975
:101560000120FFF711FB05210C48FFF7DFFD02E02A
:10157000094B00221A70164B00221A70154B0022DC
:101580001A70154B00221A700120FFF704F8134B54
:1015900001221A7000BF80BD3C00002048000020DE
:1015A00000440040490000204A0000204B00002079
:1015B000380000203A0000205825000824000020B0
:1015C000000000206425000822000020702500088B
:1015D0004F00002050000020510000204E0000204D
:1015E00080B400AF0A4B9B69094A43F0040393613E
:1015F000074B9B69064A43F008039361044B9B69C0
:10160000034A43F00103936100BFBD4680BC7047AD
:101610000010024090B593B000AFFFF7E1FF00204B
:10162000FEF7C4FE0020FEF7B6FF0120FEF7BEFE67
:101630000120FEF7B0FFFEF7A5FDFFF79FFCFFF7C7
:1016400031FC00F005FD0020FFF7E4FC0120FFF76E
:10165000E1FC00210020FFF70BFD00210120FFF736
:1016600007FD4FF4E1333B63002387F83730202335
:1016700087F83830CF4BFB63002387F835300023E1
:1016800087F83430002387F836300C2387F82C3065
:1016900007F12C031946C84800F050FDC64800F079
:1016A000A5FE4FF4E133FB61002387F823302023AC
:1016B00087F82430C14BBB62002387F82130002318
:1016C00087F82030002387F822300C233B7607F17F
:1016D00018031946BA4800F031FDB94800F086FEFB
:1016E000B8490020FFF750FA002201210020FFF73F
:1016F0004DFBB5490020FFF747FA002202210020E8
:10170000FFF744FB0120FEF746FF002200210120E5
:10171000FFF73CFBAD490120FFF736FA002201211B
:101720000120FFF733FBAA490120FFF72DFA002221
:1017300002210120FFF72AFBA6490120FFF724FA26
:10174000002203210120FFF721FBA3490120FFF71D
:101750001BFA0E2202210120FFF718FB9F4B1B787A
:10176000DBB219460120FFF759FA9D4A07F1100331
:1017700092E803001860043319700023BB60002353
:101780003B73002387F847300023FB710023BB71B4
:1017900000237B71002387F8463000233B71002330
:1017A00087F84530002387F84430002387F843301A
:1017B0008C4B1B78042BFBD801A252F823F000BFFE
:1017C000D517000897180008BD1B0008DD1A00088F
:1017D000111B00088448FEF73BFD834B1B78FF2B51
:1017E00000F02F8297F847300333DBB21A4602210C
:1017F0000020FFF7CBFA2A210020FFF757F897F8CF
:101800004730794A127848333B4403F8402C97F824
:101810004730013387F8473097F84730032B40F2C1
:10182000108207F1100207F1080311461846FEF76F
:101830009FFC0346002B1ED10020FEF7ACFE0022C9
:1018400002210020FFF7A2FA68490020FFF79CF967
:10185000642000F03AFC0020FEF79DFE644B00225D
:101860001A70644B00221A70634B00221A705D4B91
:1018700001221A700BE00020FEF78DFE00220221EB
:101880000020FFF783FA5D490020FFF77DF9002370
:1018900087F84730D5E1574B1B78002B35D1012015
:1018A000FEF779FE002200210120FFF76FFA474979
:1018B0000120FFF769F9002201210120FFF766FAF4
:1018C00043490120FFF760F9002202210120FFF7C0
:1018D0005DFA40490120FFF757F90022032101205A
:1018E000FFF754FA3C490120FFF74EF90E2202217E
:1018F0000120FFF74BFA394B1B78DBB21946012068
:10190000FFF78CF93B4B01221A70002387F8453012
:10191000002387F84430002387F84330364B1B7888
:10192000002B26D1002200210020FFF72FFA344996
:101930000020FFF729F9002201210020FFF726FAF5
:1019400030490020FFF720F9002202210020FFF794
:101950001DFA2D490020FFF717F90022032100206E
:10196000FFF714FA29490020FFF70EF9224B012254
:101970001A701F4B1B78002B40F06581FB1D184629
:10198000FEF766FCFB79FF2B00F05D81184B01220E
:101990001A70FB79313B032B00F28E8001A252F8C2
:1019A00023F000BF111A0008391A0008411A000874
:1019B000491A0008451200080038014025140008A3
:1019C00000440040802500088C250008A025000860
:1019D000B0250008BC250008CC2500080000002028
:1019E000902600084E00002020000020DC25000882
:1019F0004F0000205000002051000020F02500087A
:101A00000026000810260008202600082C260008C2
:101A10000020FEF7C0FD04218C48FFF7A3FB322015
:101A200000F053FB8A4B00221A708A4B00221A7076
:101A3000894B00221A7050E0884B02221A704CE049
:101A4000864B03221A7048E00020FEF7A4FD84496B
:101A50000020FFF799F8002201210020FFF796F9F6
:101A600080490020FFF790F8C82000F02EFB0023EB
:101A700087F84230002387F842300FE097F8422081
:101A800013469B001344714A134405211846FFF77F
:101A90004DFB97F84230013387F8423097F84230D7
:101AA000032BEBD96A4B00221A706A4B00221A7082
:101AB000694B00221A7010E00020FEF76CFD6A49A5
:101AC0000020FFF761F8624B00221A70614B002280
:101AD0001A70614B00221A70B5E0B4E00020FEF7E6
:101AE0005AFD62490020FFF74FF80CE07B1D1846B5
:101AF000FEF7AEFB7B79FF2B05D0012387F844303E
:101B0000564B04221A7097F84430002BEED09CE01C
:101B10000020FEF740FD56490020FFF735F848E069
:101B20003B1D1846FEF794FB3B79FF2B41D07B7998
:101B3000A3F1300297F846103C79444813469B00C5
:101B4000134403440B4422461A703B791946002083
:101B5000FEF7ACFE97F84630013387F8463097F829
:101B60004630032B25D90020FEF715FD0022002169
:101B70000020FFF70BF93F490020FFF705F800228E
:101B800001210020FFF702F9002387F846300123E6
:101B900087F845300020FEF7FEFC2D4B00221A701E
:101BA0002C4B00221A702C4B00221A702B4B012256
:101BB0001A7097F84530002BB2D046E00020FEF7AF
:101BC000EAFC2A490020FEF7DFFF35E0BB1D18467E
:101BD000FEF73EFBBB79FF2B2ED0002387F8413068
:101BE000002387F8413011E0BB79A3F1300297F868
:101BF0004110164813469B00134403440B44002233
:101C00001A7097F84130013387F8413097F8413026
:101C1000032BE9D90020FEF7BEFC012387F84330EF
:101C20000B4B00221A700B4B00221A700A4B002239
:101C30001A700A4B01221A7097F84330002BC5D056
:101C400003E000BFB4E500BFB2E5B1E52400002029
:101C50004F00002050000020510000204E000020C6
:101C60003C26000848260008582600086826000878
:101C700078260008842600080D488546AFF30080CA
:101C80000C480D490D4A002302E0D458C4500433D7
:101C9000C4188C42F9D30A4A0A4C002301E01360AD
:101CA0000432A242FBD300F025FCFFF7B3FCFEE7B1
:101CB000002800200000002004000020D426000896
:101CC0000400002090000020FEE7000080B483B0F4
:101CD00000AF0346FB80FB88B3F5004F00F0A58002
:101CE000B3F5004F00F3A380B3F5804F00F09B8065
:101CF000B3F5804F00F39B80B3F5005F00F0918057
:101D0000B3F5005F00F39380B3F5805F00F0878048
:101D1000B3F5805F00F38B80B3F5006F7DD0B3F532
:101D2000006F00F38480B3F5806F74D0B3F5806FDB
:101D30007DDCB3F5007F6CD0B3F5007F77DCB3F5C5
:101D4000807F64D0B3F5807F71DC802B5DD0802BE9
:101D50006DDC202B48DC002B69DD013B1F2B66D896
:101D600001A252F823F000BFEF1D0008F31D000888
:101D70002F1E0008F71D00082F1E00082F1E000848
:101D80002F1E0008FB1D00082F1E00082F1E000834
:101D90002F1E00082F1E00082F1E00082F1E0008EF
:101DA0002F1E0008FF1D00082F1E00082F1E000810
:101DB0002F1E00082F1E00082F1E00082F1E0008CF
:101DC0002F1E00082F1E00082F1E00082F1E0008BF
:101DD0002F1E00082F1E00082F1E00082F1E0008AF
:101DE0002F1E0008031E0008402B0CD01FE000230C
:101DF0001EE004231CE008231AE00C2318E0102343
:101E000016E0142314E0182312E01C2310E0002332
:101E10000EE004230CE008230AE00C2308E0102362
:101E200006E0142304E0182302E01C2300E0002352
:101E300018460C37BD4680BC704700BF90B585B0D2
:101E400000AF786039600023BB600023FB733B6800
:101E50001B88FF2B01D87B6801E07B680433BB60E3
:101E60003B681B881846FFF731FF03461A460F23CD
:101E70009340DA43BB681B681A40BB681A603B6832
:101E80009B78072B0BD03B689B78062B07D03B68D1
:101E90009B78052B03D03B689B78042B0ED13B68C5
:101EA0009B78043B9B005AB23B68DB785BB21343E0
:101EB0005BB2DBB203F00F03FB732CE03B689B7853
:101EC000012B03D03B689B78002B07D13B689B78A4
:101ED0009B00DBB203F00F03FB731CE03B689B78B5
:101EE000082B02D10423FB7315E00823FB733B6826
:101EF0009B78022B07D17B68DB683A6812881A430B
:101F00007B68DA6007E07B68DB683A681288D24356
:101F10001A407B68DA60FC7B3B681B881846FFF739
:101F2000D5FE034604FA03F2BB681B681A43BB687C
:101F30001A6000BF1437BD4690BD80B485B000AFB5
:101F400078600B467B807B689A687B881340002B07
:101F500002D00123FB7301E00023FB73FB7B1846D7
:101F60001437BD4680BC704780B483B000AF786042
:101F70000B467B8013467B707B78002B03D07A88DE
:101F80007B681A6102E07A887B685A6100BF0C376F
:101F9000BD4680BC7047000080B400AF0B4B5B684F
:101FA0009B0803F00303022B0AD0022B0AD8002B54
:101FB00002D0012B02D005E0054B03E0054B01E008
:101FC000044BFFE71846BD4680BC70470010024036
:101FD00000127A000024F40080B500AFFFF7DCFFA8
:101FE0000246054B5B681B0903F00F030349CB5CFA
:101FF00022FA03F3184680BD00100240B426000800
:1020000080B500AFFFF7E8FF0246054B5B681B0A8F
:1020100003F007030349CB5C22FA03F3184680BDA3
:1020200000100240AC26000880B500AFFFF7D4FFD7
:102030000246054B5B68DB0A03F007030349CB5CF0
:1020400022FA03F3184680BD00100240AC260008B7
:1020500080B400AF114BDB69104A43F00103D36138
:102060004FF0804307229A624FF080434CF2503287
:10207000DA624FF080431B684FF0804243F0010367
:10208000136000BF4FF080431B6903F00103002B76
:10209000F8D000BF00BFBD4680BC704700100240B2
:1020A00080B483B000AF78604FF0804300225A6262
:1020B00000BF4FF080435A6A7B689A42F9D300BF51
:1020C00000BF0C37BD4680BC704780B584B000AF00
:1020D00078600023FB6006E04FF47A70FFF7E0FFC2
:1020E000FB680133FB60FA687B689A42F4DB00BF4F
:1020F00000BF1037BD4680BD80B483B000AF7860AC
:102100007B680B4A934201D100230CE07B68094AAB
:10211000934201D1012306E07B68074A934201D133
:10212000022300E0032318460C37BD4680BC7047ED
:10213000003801400044004000480040B0B584B081
:1021400000AF786039607B68614A93420ED1614A82
:102150003B6814461D460FCD0FC42B6823605E4BB1
:102160009B695D4A43F48043936126E07B685B4A48
:1021700093420FD1574B3A6803F1140415460FCD23
:102180000FC42B682360544BDB69534A43F400337C
:10219000D36112E07B68524A93420ED14D4B3A68AC
:1021A00003F1280415460FCD0FC42B6823604A4B5A
:1021B000DB69494A43F48023D3617B68DB6843F4DD
:1021C00000527B68DA607B68DB683A6812781A43F1
:1021D0007B68DA607B68DB683A68127A1A437B684E
:1021E000DA607B68DB683A68527A1A437B68DA60A7
:1021F0007B681B693A68927A1A437B681A617B682C
:102200005B693A68D27A1A437B685A617B68304AC4
:10221000934203D1FFF708FFF86002E0FFF7F0FEFA
:10222000F8603B685B681B01FA68B2FBF3F31901C5
:10223000FA6813469B0013449A001A443B685B6893
:102240009B00B2FBF3F23B685B681B01F868B0FBD4
:10225000F3F3642000FB03F3D31A1B01214AA2FB12
:1022600003235B0903F00F030B43BB607B68BA6871
:102270009A603B681B7B002B26D07B68DB683A6842
:10228000127B1A437B68DA607B68114A934206D15D
:10229000154B1B68144A43F02003136014E07B685D
:1022A0000E4A934206D1104B1B680F4A43F040037D
:1022B000136009E07B680A4A934205D10A4B1B6808
:1022C000094A43F08003136000BF1037BD46B0BD1C
:1022D000003801405400002000100240004400403B
:1022E000004800401F85EB5104E100E080B586B056
:1022F00000AFF860B9601346FB71FB79012B06D182
:1023000000BFFB681B6803F08003002BF9D0F8685E
:10231000FFF7F2FE0346FB75BB681B88DAB2FB6869
:102320005A6000BF1837BD4680BD80B586B000AF8B
:10233000F860B9601346FB710D23BB820023FB7567
:102340000AE0FB7DBA681344FA791946F868FFF78A
:10235000CDFFFB7D0133FB75FB7DBA6813441B7811
:10236000002BEED1FA7907F114031946F868FFF74C
:10237000BDFF00BF1837BD4680BD000080B586B0E8
:1023800000AFF860B9601346FB71FB79012B06D1F1
:1023900000BFFB681B6803F02003002BF9D0F8682E
:1023A000FFF7AAFE0346FB75FA7D0F4913469B0013
:1023B00013449B000B4409331B78002B07D1FB68A7
:1023C0005B689BB2DBB29AB2BB681A8007E0FB681D
:1023D0005B689BB203F07F039AB2BB681A8000BFB0
:1023E0001837BD4680BD00BF5400002080B584B0C2
:1023F00000AF78607B682B4A934218D14FF400738A
:10240000BB810623BB730123FB7307F10C03194641
:102410002548FFF713FD4FF48063BB810823BB738E
:1024200007F10C0319462048FFF708FD36E07B68EA
:102430001E4A934216D10423BB810623BB7301239A
:10244000FB7307F10C0319461748FFF7F7FC082345
:10245000BB810823BB7307F10C0319461248FFF731
:10246000EDFC1BE07B68124A934217D14FF4806366
:10247000BB810623BB730123FB7307F10C031946D1
:102480000C48FFF7DBFC4FF40063BB810823BB73F0
:1024900007F10C0319460748FFF7D0FC00BF1037BF
:1024A000BD4680BD003801400008014000440040A6
:1024B00000480040000C014080B500AF024B1B6992
:1024C000984700BF80BD00BF5400002080B500AF1A
:1024D000024B5B6A984700BF80BD00BF54000020DC
:1024E00080B500AF024B9B6B984700BF80BD00BF1B
:1024F0005400002070B500260C4D0D4C641BA41038
:10250000A64209D100F01AF800260A4D0A4C641BB5
:10251000A410A64205D170BD55F8043B984701367A
:10252000EEE755F8043B98470136F2E7CC26000861
:10253000CC260008CC260008D0260008F8B500BF3D
:10254000F8BC08BC9E467047F8B500BFF8BC08BC94
:042550009E467047EC
:102554002D200000596F75722049443A2000000074
:10256400456C696769626C6520494400556E726503
:1025740067697374657265642049440048656C6CCE
:102584006F2041646D696E00456E74657220506100
:102594007373776F72643A200000000057656C63B0
:1025A4006F6D6520746F206F757200005061726BDF
:1025B400696E67203A290000456D70747920536C68
:1025C4006F74733A000000005061737320796F7563
:1025D4007220636172640000436F727265637420D9
:1025E40050617373776F72640000000057726F6EEE
:1025F400672050617373776F72640000312D20443B
:102604006973706C6179204944730000322D204451
:10261400656C65746520494400000000332D204139
:102624006464204944000000342D2044656C6574C2
:102634006520616C6C0000004944732064656C651E
:10264400746564005375636365737366756C6C7944
:1026540000000000496E76616C6964204F707469F3
:102664006F6E0000456E74657220496E6465783A39
:1026740020000000456E7465722049443A20000031
:10268400456E746572656420494400003132333408
:102694000000000023302A393837363534333231DC
:1026A4000102081080402000000000000102030421
:1026B40000000000000000000102030406070809EE
:0826C400ACDAFF7F0100000009
:0426CC0055010008AC
:0426D00031010008CC
:0426D40003000000FF
:0400000508001C795A
:00000001FF
